:020000040800F2
:1000000000180020291F00087B1F0008871F000818
:100010008D1F0008931F0008991F000800000000B2
:100020000000000000000000000000009F1F00080A
:10003000AB1F000800000000B71F0008D10900082E
:10004000791F0008791F0008791F0008791F000830
:10005000791F0008791F0008791F0008791F000820
:10006000791F0008791F0008791F0008791F000810
:10007000791F0008791F0008791F0008791F000800
:10008000791F0008791F0008791F0008791F0008F0
:10009000791F0008791F0008791F0008791F0008E0
:1000A000791F0008791F0008791F0008791F0008D0
:1000B000791F0008791F000800000000791F000860
:1000C000791F00080000000000000000BD090008C2
:1000D00000000000DD0A0008791F00080000000091
:1000E000791F0008791F0008791F00080000000030
:1000F0000000000000000000000000000000000000
:0C01000000000000000000005FF808F1A3
:10010C0010B5054C237833B9044B13B10448AFF345
:10011C0000800123237010BD0000002000000000AF
:10012C008021000808B5034B1BB103490348AFF30A
:10013C00008008BD000000000400002080210008A1
:10014C0080B483B000AF0346FB710B46BB71134602
:10015C007B71FB79012B3AD0022B6DD0002B00D098
:10016C00A4E0BB79072B15D85349534B1B68BA79BC
:10017C0092000F2000FA02F2D24313400B604E485B
:10018C004D4B1B687979BA79920001FA02F213434C
:10019C00036086E0BB790F2B00F28380BB79083BB0
:1001AC00BB714549444B5B68BA7992000F2000FA49
:1001BC0002F2D24313404B603F483F4B5B68797966
:1001CC00BA79920001FA02F21343436069E0BB79F9
:1001DC00072B15D83949394B1B68BA7992000F2077
:1001EC0000FA02F2D24313400B603448334B1B68C5
:1001FC007979BA79920001FA02F21343036052E062
:10020C00BB790F2B4FD8BB79083BBB712B492B4BC0
:10021C005B68BA7992000F2000FA02F2D2431340C5
:10022C004B602648254B5B687979BA79920001FAC4
:10023C0002F21343436036E0BB79072B15D82049F3
:10024C001F4B1B68BA7992000F2000FA02F2D243BE
:10025C0013400B601A481A4B1B687979BA799200D3
:10026C0001FA02F2134303601FE0BB790F2B1CD879
:10027C00BB79083BBB711249114B5B68BA79920090
:10028C000F2000FA02F2D24313404B600C480C4B87
:10029C005B687979BA79920001FA02F213434360F0
:1002AC0003E000BF02E000BF00E000BF00BF0C375E
:1002BC00BD4680BC704700BF00080140000C0140E7
:1002CC000010014080B483B000AF0346FB710B46B5
:1002DC00BB7113467B71FB79012B1FD0022B38D0DD
:1002EC00002B00D055E07B79012B09D12B492B4BEE
:1002FC00DB68BA79012000FA02F21343CB6043E0C9
:10030C007B79002B40D12549244BDB68BA7901203D
:10031C0000FA02F2D2431340CB6035E07B79012B1B
:10032C0009D11F491E4BDB68BA79012000FA02F291
:10033C001343CB602AE07B79002B27D11849184B4B
:10034C00DB68BA79012000FA02F2D2431340CB6089
:10035C001CE07B79012B09D11249124BDB68BA796D
:10036C00012000FA02F21343CB6011E07B79002BE1
:10037C000ED10C490B4BDB68BA79012000FA02F262
:10038C00D2431340CB6003E000BF02E000BF00E0AB
:10039C0000BF00BF0C37BD4680BC70470008014051
:1003AC00000C01400010014080B485B000AF034642
:1003BC000A46FB711346BB710023FB73FB79012BBF
:1003CC000DD0022B15D0002B1DD1124B9A68BB7986
:1003DC0022FA03F3DBB203F00103FB7313E00E4BC1
:1003EC009A68BB7922FA03F3DBB203F00103FB73C7
:1003FC0009E0094B9A68BB7922FA03F3DBB203F0EC
:10040C000103FB7300BFFB7B18461437BD4680BC51
:10041C00704700BF00080140000C014080B483B05D
:10042C0000AF0346FB710B46BB711346BB80FB79D7
:10043C00012B1CD0022B32D0002B00D04CE0BB790E
:10044C00002B09D1274A274BDB6803F47F43B9887B
:10045C00C9B20B43D3603AE0BB79012B37D12149A8
:10046C00204BDB68DAB2BB881343CB602FE0BB793F
:10047C00002B09D11C4A1C4BDB6803F47F43B98861
:10048C00C9B20B43D36024E0BB79012B21D11649AF
:10049C00154BDB68DAB2BB881343CB6019E0BB7930
:1004AC00002B09D1114A114BDB6803F47F43B98847
:1004BC00C9B20B43D3600EE0BB79012B0BD10B49B6
:1004CC000A4BDB68DAB2BB881343CB6003E000BF96
:1004DC0002E000BF00E000BF00BF0C37BD4680BC8F
:1004EC00704700BF00080140000C014000100140A3
:1004FC0080B483B000AF0023FB710CE00023BB7110
:10050C0003E000BFBB790133BB71BB79632BF8D916
:10051C00FB790133FB71FB79632BEFD900BF0C37EF
:10052C00BD4680BC704780B500AF08220C2101206D
:10053C00FFF706FE08220D210120FFF701FE08221D
:10054C000E210120FFF7FCFD08220F210120FFF7EF
:10055C00F7FD01220C210120FFF7B4FE01220D2131
:10056C000120FFF7AFFE01220E210120FFF7AAFEAA
:10057C0001220F210120FFF7A5FE022208210120F4
:10058C00FFF7DEFD022209210120FFF7D9FD02222F
:10059C000A210120FFF7D4FD02220B210120FFF7D5
:1005AC00CFFD012208210120FFF78CFE0122092139
:1005BC000120FFF787FE01220A210120FFF782FEAE
:1005CC0001220B210120FFF77DFE00BF80BD000042
:1005DC0090B589B000AF2E4B3C1D0FCB84E80F00BB
:1005EC00FF23FB770023BB6149E0BB69DBB2083317
:1005FC00DBB2002219460120FFF764FE00237B6169
:10060C002EE07B69DBB20C33DBB219460120FFF71D
:10061C00CBFE0346002B20D1BB699B0007F12002C7
:10062C001A447B6913441C3B1B78FB7700BF7B6926
:10063C00DBB20C33DBB219460120FFF7B5FE0346E3
:10064C00002BF4D0FFF754FF7B69DBB20C33DBB229
:10065C00012219460120FFF735FE7B6901337B61CE
:10066C007B69032BCDDDBB69DBB20833DBB2012226
:10067C0019460120FFF726FEBB690133BB61BB693C
:10068C00032BB2DDFB7F18462437BD4690BD00BF5F
:10069C009821000880B483B000AF0023FB710CE0FC
:1006AC000023BB7103E000BFBB790133BB71BB7985
:1006BC00632BF8D9FB790133FB71FB79632BEFD9F1
:1006CC0000BF0C37BD4680BC704780B483B000AF10
:1006DC000023FB710CE00023BB7103E000BFBB796E
:1006EC000133BB71BB79F92BF8D9FB790133FB7161
:1006FC00FB79F92BEFD900BF0C37BD4680BC704796
:10070C0080B582B000AF0346FB7100220C210020A3
:10071C00FFF7D8FDFB799BB21A4600210020FFF7AA
:10072C007DFE01220B210020FFF7CCFDFFF7B2FF6D
:10073C0000220B210020FFF7C5FDFFF7ABFF0122C4
:10074C000B210020FFF7BEFD00BF0837BD4680BD62
:10075C0080B500AF022200210020FFF7F1FC02223D
:10076C0001210020FFF7ECFC022202210020FFF700
:10077C00E7FC022203210020FFF7E2FC0222042105
:10078C000020FFF7DDFC022205210020FFF7D8FC3A
:10079C00022206210020FFF7D3FC022207210020B1
:1007AC00FFF7CEFC02220A210020FFF7C9FC02222F
:1007BC000C210020FFF7C4FC02220B210020FFF7C4
:1007CC00BFFC00220A210020FFF77CFDFFF762FF2F
:1007DC003820FFF795FFFFF75DFF0F20FFF790FF25
:1007EC00FFF758FF0120FFF78BFFFFF753FF0620A1
:1007FC00FFF786FFFFF74EFF00BF80BD80B582B0CC
:10080C0000AF0346FB7101220C210020FFF75AFDBB
:10081C00FB799BB21A4600210020FFF7FFFD012255
:10082C000B210020FFF74EFDFFF734FF00220B21B8
:10083C000020FFF747FDFFF72DFF01220B210020C1
:10084C00FFF740FD00BF0837BD4680BD80B582B0C4
:10085C0000AF786007E07B681B781846FFF7CEFF87
:10086C007B6801337B607B681B78002BF3D100BF66
:10087C000837BD4680BD80B500AF0120FFF740FFB3
:10088C000220FFF73DFF00BF80BD80B582B000AFF6
:10089C0003460A46FB711346BB71FB79002B16D03D
:1008AC00FB79102B13D8BB79012B02D0022B07D06C
:1008BC000DE0FB797F33DBB21846FFF721FF06E032
:1008CC00FB79413BDBB21846FFF71AFF00BF00BFB4
:1008DC000837BD4680BD000080B483B000AF002354
:1008EC007B60164A154B5B6843F001035360134A57
:1008FC00124B5B6823F002035360104A0F4B1B68CA
:10090C0043F48033136002E07B6801337B600B4B54
:10091C001B685B0C03F00103002B03D17B68084AB6
:10092C009342F1D9054A054B1B6823F4002313604D
:10093C0000BF0C37BD4680BC704700BF00100240A2
:10094C009F86010080B483B000AF03460A46FB715A
:10095C001346BB71FB79012B0ED0022B16D0002B4A
:10096C0000D01DE01149114B5B69BA79012000FAE6
:10097C0002F213434B6113E00C490C4BDB69BA795F
:10098C00012000FA02F21343CB6109E00749074B3F
:10099C009B69BA79012000FA02F213438B6100BF04
:1009AC0000BF0C37BD4680BC704700BF0010024032
:1009BC0080B500AF024B1B68984700BF80BD00BFDD
:1009CC001C00002080B500AF024B1B68984700BF8D
:1009DC0080BD00BF2000002080B483B000AF342362
:1009EC007B6080233B603B6840F2DC52934204D92D
:1009FC007B6801337B6000233B60274B00221A602D
:100A0C00254A254BDB6823F48053D360224A224BC2
:100A1C00DB6823F48063D3601F4A1F4BDB6823F031
:100A2C002003D3601C4A1C4BDB6823F04003D360CB
:100A3C00194A194BDB6823F08003D360164A164B16
:100A4C00DB6843F00803D360134A134BDB6843F0B5
:100A5C000403D360104A104B1B6923F480531361B9
:100A6C000D4A0D4B1B6923F4005313610A497B6833
:100A7C001A013B680948A0FB03035B0913438B6015
:100A8C00054A054BDB6843F40053D36000BF0C37B9
:100A9C00BD4680BC704700BF003801401F85EB513C
:100AAC0080B483B000AF0346FB71084AFB795360F6
:100ABC0000BF064B1B689B0903F00103002BF8D009
:100ACC0000BF0C37BD4680BC704700BF00380140EA
:100ADC0080B500AF034B00221A60034B1B6898478C
:100AEC0000BF80BD003801403800002080B582B0C6
:100AFC0000AFFF23BB71FFF7EFFE02210220FFF7CF
:100B0C0021FF03210220FFF71DFF0C210220FFF71C
:100B1C0019FF0E210220FFF715FF0A2209210020E0
:100B2C00FFF70EFBFFF758FFFFF712FEFFF7FBFC7A
:100B3C000023FB71FFF79FFED648FFF787FEFFF7F8
:100B4C00C4FDFFF798FEFB79002B14D1FFF793FE41
:100B5C00D148FFF77BFE02210120FFF796FECF481C
:100B6C00FFF774FE02210820FFF78FFECC48FFF739
:100B7C006DFE0123FB71FFF7BBFCFFF7B9FCFFF720
:100B8C0027FD0346BB71BB79302B40F0B1860623A1
:100B9C00BB710023FB71FFF76EFEFB79002B22D19A
:100BAC00FFF769FEBF48FFF751FEFFF78EFDFFF719
:100BBC0062FEBD48FFF74AFE01210F20FFF765FEDC
:100BCC00BA48FFF743FE02211020FFF75EFEB8483B
:100BDC00FFF73CFE02210120FFF757FEB548FFF757
:100BEC0035FE0123FB71FFF783FCFFF781FCFFF758
:100BFC00EFFC03467B717B79352B05D10023FB7110
:100C0C0006237B7101F077B97B79312B40F0A381FE
:100C1C0006237B710023FB71FFF72DFEFB79002B64
:100C2C001BD1FFF728FEA448FFF710FE01210F206F
:100C3C00FFF72BFE9D48FFF709FE02211020FFF75E
:100C4C0024FE9B48FFF702FE02210120FFF71DFE48
:100C5C009A48FFF7FBFD0123FB71FFF749FCFFF7F7
:100C6C0047FCFFF7B5FC03463B713B79352B05D1AF
:100C7C000023FB7106233B7100F026BE3B79312B20
:100C8C006DD106233B710023FB71FFF7F4FDFB795B
:100C9C00002B14D1FFF7EFFD8948FFF7D7FD012199
:100CAC000F20FFF7F2FD8148FFF7D0FD0221102045
:100CBC00FFF7EBFD7E48FFF7C9FD0123FB71FFF742
:100CCC0017FCFFF715FCFFF783FC0346FB70FB7862
:100CDC00352B04D10023FB710623FB703AE1FB7822
:100CEC00312B1CD10623FB70FFF7C5FD7548FFF7B0
:100CFC00ADFD01210F20FFF7C8FD6C48FFF7A6FDE5
:100D0C0002211020FFF7C1FD6948FFF79FFD31203C
:100D1C00FFF7C6FEFFF7ECFBFFF7EAFBB7E7FB7844
:100D2C00302BB4D10623FB70FFF7A5FD6648FFF707
:100D3C008DFD01210F20FFF7A8FD5C48FFF786FD14
:100D4C0002211020FFF7A1FD5948FFF77FFD30204D
:100D5C00FFF7A6FEFFF7CCFBFFF7CAFB97E73B7943
:100D6C00322B69D106233B710023FB71FFF783FD06
:100D7C00FB79002B12D15548FFF768FD01210F209C
:100D8C00FFF783FD4948FFF761FD02211020FFF7B3
:100D9C007CFD4748FFF75AFD0123FB71FFF7A8FBC9
:100DAC00FFF716FC0346FB70FB78352B04D10023B0
:100DBC00FB710623FB70CDE0FB78312B1CD1062395
:100DCC00FB70FFF758FD3F48FFF740FD01210F2056
:100DDC00FFF75BFD3548FFF739FD02211020FFF7C7
:100DEC0054FD3348FFF732FD3320FFF759FEFFF770
:100DFC007FFBFFF77DFBBBE7FB78302BB8D10623DD
:100E0C00FB70FFF738FD3048FFF720FD01210F2064
:100E1C00FFF73BFD2548FFF719FD02211020FFF7D6
:100E2C0034FD2348FFF712FD3420FFF739FEFFF79E
:100E3C005FFBFFF75DFB9BE73B79332B7FF4EEAE5B
:100E4C0006233B710023FB71FFF715FDFB79002B8B
:100E5C0012D11F48FFF7FAFC01210F20FFF715FDF7
:100E6C001248FFF7F3FC02211020FFF70EFD10488B
:100E7C00FFF7ECFC0123FB71FFF73AFBFFF7A8FB34
:100E8C000346FB70FB78352B24D10023FB71062322
:100E9C00FB705FE0A8210008B8210008C8210008F9
:100EAC00D0210008D8210008EC210008FC21000802
:100EBC000022000804220008142200082422000842
:100ECC003422000844220008482200084C22000862
:100EDC005C220008FB78312B1CD10623FB70FFF73A
:100EEC00CAFCD048FFF7B2FC01210F20FFF7CDFC64
:100EFC00CD48FFF7ABFC02211020FFF7C6FCCB4816
:100F0C00FFF7A4FC3520FFF7CBFDFFF7F1FAFFF755
:100F1C00EFFA9BE7FB78302B98D10623FB70FFF799
:100F2C00AAFCC348FFF792FC01210F20FFF7ADFC90
:100F3C00BD48FFF78BFC02211020FFF7A6FCBB4835
:100F4C00FFF784FC3620FFF7ABFDFFF7D1FAFFF774
:100F5C00CFFA7BE762E67B79322B40F09681062351
:100F6C007B710023FB71FFF786FCFB79002B1BD1F7
:100F7C00FFF781FCAF48FFF769FC01210F20FFF759
:100F8C0084FCA948FFF762FC02211020FFF77DFCCE
:100F9C00A648FFF75BFC02210120FFF776FCA64870
:100FAC00FFF754FC0123FB71FFF7A2FAFFF7A0FA3D
:100FBC00FFF70EFB03463B713B79352B05D1002324
:100FCC00FB7106233B7100F07FBC3B79312B6DD15B
:100FDC0006233B710023FB71FFF74DFCFB79002BC3
:100FEC0014D1FFF748FC9548FFF730FC01210F2086
:100FFC00FFF74BFC8C48FFF729FC02211020FFF770
:10100C0044FC8A48FFF722FC0123FB71FFF770FABE
:10101C00FFF76EFAFFF7DCFA0346FB70FB78352B13
:10102C0004D10023FB710623FB702DE1FB78312BDF
:10103C001CD10623FB70FFF71EFC7A48FFF706FC59
:10104C0001210F20FFF721FC7748FFF7FFFB02215E
:10105C001020FFF71AFC7548FFF7F8FB3120FFF75B
:10106C001FFDFFF745FAFFF743FAB7E7FB78302B84
:10107C00B4D10623FB70FFF7FEFB6D48FFF7E6FBD0
:10108C0001210F20FFF701FC6748FFF7DFFB02216E
:10109C001020FFF7FAFB6548FFF7D8FB3020FFF76D
:1010AC00FFFCFFF725FAFFF723FA97E73B79322B82
:1010BC0069D106233B710023FB71FFF7DCFBFB7945
:1010CC00002B12D15E48FFF7C1FB01210F20FFF767
:1010DC00DCFB5548FFF7BAFB02211020FFF7D5FBCC
:1010EC005248FFF7B3FB0123FB71FFF701FAFFF73F
:1010FC006FFA0346FB70FB78352B04D10023FB7190
:10110C000623FB70C0E0FB78312B1CD10623FB704F
:10111C00FFF7B1FB4348FFF799FB01210F20FFF7C5
:10112C00B4FB4148FFF792FB02211020FFF7ADFB07
:10113C003E48FFF78BFB3320FFF7B2FCFFF7D8F9E3
:10114C00FFF7D6F9BBE7FB78302BB8D10623FB7041
:10115C00FFF791FB3648FFF779FB01210F20FFF7D2
:10116C0094FB3148FFF772FB02211020FFF78DFB37
:10117C002E48FFF76BFB3420FFF792FCFFF7B8F912
:10118C00FFF7B6F99BE73B79332B7FF4EEAE0623E2
:10119C003B710023FB71FFF76EFBFB79002B12D127
:1011AC002848FFF753FB01210F20FFF76EFB1E4869
:1011BC00FFF74CFB02211020FFF767FB1B48FFF7E2
:1011CC0045FB0123FB71FFF793F9FFF701FA034687
:1011DC00FB70FB78352B04D10023FB710623FB70CD
:1011EC0052E0FB78312B2FD10623FB70FFF743FB2A
:1011FC000C48FFF72BFB01210F20FFF746FB0A4899
:10120C00FFF724FB02211020FFF73FFB0748FFF7F5
:10121C001DFB3520FFF744FCFFF76AF9FFF768F96F
:10122C00BBE700BF44220008FC2100080022000894
:10123C00482200086C2200082422000834220008EE
:10124C004C2200085C220008FB78302BA5D1062329
:10125C00FB70FFF710FBD048FFF7F8FA01210F20C5
:10126C00FFF713FBCD48FFF7F1FA02211020FFF72F
:10127C000CFBCB48FFF7EAFA3620FFF711FCFFF71F
:10128C0037F9FFF735F988E76FE67B79332B40F0B8
:10129C00958106237B710023FB71FFF7ECFAFB7938
:1012AC00002B1BD1FFF7E7FABE48FFF7CFFA01215D
:1012BC000F20FFF7EAFAB948FFF7C8FA022110200D
:1012CC00FFF7E3FAB648FFF7C1FA02210120FFF756
:1012DC00DCFAB548FFF7BAFA0123FB71FFF708F9FE
:1012EC00FFF706F9FFF774F903463B713B79352B91
:1012FC0004D10023FB7106233B71E5E23B79312BD2
:10130C006DD106233B710023FB71FFF7B4FAFB7917
:10131C00002B14D1FFF7AFFAA448FFF797FA01217D
:10132C000F20FFF7B2FA9D48FFF790FA0221102028
:10133C00FFF7ABFA9A48FFF789FA0123FB71FFF725
:10134C00D7F8FFF7D5F8FFF743F90346FB70FB78A6
:10135C00352B04D10023FB710623FB701AE1FB78BB
:10136C00312B1CD10623FB70FFF785FA9048FFF751
:10137C006DFA01210F20FFF788FA8848FFF766FA0B
:10138C0002211020FFF781FA8548FFF75FFA312020
:10139C00FFF786FBFFF7ACF8FFF7AAF8B7E7FB7887
:1013AC00302BB4D10623FB70FFF765FA7A48FFF7B0
:1013BC004DFA01210F20FFF768FA7848FFF746FA3B
:1013CC0002211020FFF761FA7548FFF73FFA302031
:1013DC00FFF766FBFFF78CF8FFF78AF897E73B7986
:1013EC00322B69D106233B710023FB71FFF743FAC3
:1013FC00FB79002B12D16F48FFF728FA01210F203F
:10140C00FFF743FA6548FFF721FA02211020FFF796
:10141C003CFA6348FFF71AFA0123FB71FFF768F8EF
:10142C00FFF7D6F80346FB70FB78352B04D100236D
:10143C00FB710623FB70ADE0FB78312B1CD106232E
:10144C00FB70FFF718FA5A48FFF700FA01210F203A
:10145C00FFF71BFA5148FFF7F9F902211020FFF7AB
:10146C0014FA4F48FFF7F2F93320FFF719FBFFF797
:10147C003FF8FFF73DF8BBE7FB78302BB8D10623DC
:10148C00FB70FFF7F8F94448FFF7E0F901210F2052
:10149C00FFF7FBF94148FFF7D9F902211020FFF7BC
:1014AC00F4F93F48FFF7D2F93420FFF7F9FAFFF7C8
:1014BC001FF8FFF71DF89BE73B79332B7FF4EFAE5A
:1014CC0006233B710023FB71FFF7D5F9FB79002B49
:1014DC0012D13948FFF7BAF901210F20FFF7D5F9DE
:1014EC002E48FFF7B3F902211020FFF7CEF92C4854
:1014FC00FFF7ACF90123FB71FEF7FAFFFFF768F871
:10150C000346FB70FB78352B04D10023FB710623BB
:10151C00FB703FE0FB78312B1CD10623FB70FFF7EF
:10152C00AAF92348FFF792F901210F20FFF7ADF933
:10153C001A48FFF78BF902211020FFF7A6F918487B
:10154C00FFF784F93520FFF7ABFAFEF7D1FFFEF772
:10155C00CFFFBBE7FB78302BB8D10623FB70FFF72E
:10156C008AF90D48FFF772F901210F20FFF78DF969
:10157C000A48FFF76BF902211020FFF786F908489B
:10158C00FFF764F93620FFF78BFAFEF7B1FFFEF791
:10159C00AFFF9BE783E600BF48220008FC21000850
:1015AC00002200087C2200082422000834220008B3
:1015BC00442200084C2200085C2200087B79342B62
:1015CC007FF4EBAA06237B710023FB71FFF753F921
:1015DC00FB79002B1BD1FFF74EF9BC48FFF736F90E
:1015EC0001210F20FFF751F9B948FFF72FF902211C
:1015FC001020FFF74AF9B748FFF728F9022101201C
:10160C00FFF743F9B448FFF721F90123FB71FEF70B
:10161C006FFFFEF76DFFFEF7DBFF03463B713B7977
:10162C00352B04D10023FB7106233B714CE13B7934
:10163C00312B6DD106233B710023FB71FFF71BF996
:10164C00FB79002B14D1FFF716F9A448FFF7FEF82D
:10165C0001210F20FFF719F99D48FFF7F7F8022138
:10166C001020FFF712F99B48FFF7F0F80123FB71EC
:10167C00FEF73EFFFEF73CFFFEF7AAFF0346FB70AA
:10168C00FB78352B04D10023FB710623FB701AE188
:10169C00FB78312B1CD10623FB70FFF7ECF890483C
:1016AC00FFF7D4F801210F20FFF7EFF88848FFF778
:1016BC00CDF802211020FFF7E8F88648FFF7C6F8AE
:1016CC003120FFF7EDF9FEF713FFFEF711FFB7E737
:1016DC00FB78302BB4D10623FB70FFF7CCF8814894
:1016EC00FFF7B4F801210F20FFF7CFF87848FFF788
:1016FC00ADF802211020FFF7C8F87648FFF7A6F8DE
:10170C003020FFF7CDF9FEF7F3FEFEF7F1FE97E779
:10171C003B79322B69D106233B710023FB71FFF718
:10172C00AAF8FB79002B12D16F48FFF78FF8012133
:10173C000F20FFF7AAF86648FFF788F8022110205F
:10174C00FFF7A3F86348FFF781F80123FB71FEF75D
:10175C00CFFEFEF73DFF0346FB70FB78352B04D123
:10176C000023FB710623FB70ADE0FB78312B1CD101
:10177C000623FB70FFF77FF85948FFF767F8012144
:10178C000F20FFF782F85248FFF760F80221102073
:10179C00FFF77BF84F48FFF759F83320FFF780F934
:1017AC00FEF7A6FEFEF7A4FEBBE7FB78302BB8D104
:1017BC000623FB70FFF75FF84A48FFF747F8012153
:1017CC000F20FFF762F84248FFF740F80221102083
:1017DC00FFF75BF83F48FFF739F83420FFF760F963
:1017EC00FEF786FEFEF784FE9BE73B79332B7FF4F6
:1017FC00EFAE06233B710023FB71FFF73CF8FB793E
:10180C00002B12D13948FFF721F801210F20FFF7E7
:10181C003CF82F48FFF71AF802211020FFF735F893
:10182C002C48FFF713F80123FB71FEF761FEFEF75E
:10183C00CFFE0346FB70FB78352B04D10023FB71E4
:10184C000623FB703FE0FB78312B1CD10623FB7089
:10185C00FFF711F82248FEF7F9FF01210F20FFF7DF
:10186C0014F81B48FEF7F2FF02211020FFF70DF8C9
:10187C001848FEF7EBFF3520FFF712F9FEF738FE9C
:10188C00FEF736FEBBE7FB78302BB8D10623FB7096
:10189C00FEF7F1FF1348FEF7D9FF01210F20FEF7E9
:1018AC00F4FF0B48FEF7D2FF02211020FEF7EDFFEC
:1018BC000848FEF7CBFF3620FFF7F2F8FEF718FECC
:1018CC00FEF716FE9BE783E6FFF767B98C2200084C
:1018DC00FC21000800220008242200083422000801
:1018EC0044220008482200084C2200085C22000810
:1018FC00BB79312B7FF427A90623BB710023FB7125
:10190C00FEF7B9FFFB79002B22D1FEF7B4FFC348D9
:10191C00FEF79CFFFEF7D9FEFEF7ADFFC048FEF7C1
:10192C0095FF01210F20FEF7B0FFBE48FEF78EFF9A
:10193C0002211020FEF7A9FFBB48FEF787FF02210A
:10194C000120FEF7A2FFB948FEF780FF0123FB71CF
:10195C00FEF7CEFDFEF7CCFDFEF73AFE03467B719B
:10196C007B79352B04D10023FB7106237B71C2E2FA
:10197C007B79312B40F0A78006237B710023FB7110
:10198C00FEF779FFFB79002B1BD1FEF774FFA848FB
:10199C00FEF75CFF01210F20FEF777FFA148FEF751
:1019AC0055FF02211020FEF770FF9F48FEF74EFFF7
:1019BC0002210120FEF769FF9E48FEF747FF012335
:1019CC00FB71FEF795FDFEF793FDFEF701FE034656
:1019DC003B713B79352B04D10023FB7106233B7102
:1019EC0088E23B79312BCDD106233B710023FB716F
:1019FC00FEF741FFFB79002B14D1FEF73CFF8E481C
:101A0C00FEF724FF01210F20FEF73FFF8548FEF76C
:101A1C001DFF02211020FEF738FF8348FEF716FF4A
:101A2C000123FB71FEF764FDFEF762FDFEF7D0FDAE
:101A3C000346FB70FB78352B04D10023FB71062386
:101A4C00FB703FE0FB78312B1CD10623FB70FEF7BB
:101A5C0012FF7A48FEF7FAFE01210F20FEF715FF60
:101A6C007048FEF7F3FE02211020FEF70EFF6E48C1
:101A7C00FEF7ECFE3120FFF713F8FEF739FDFEF709
:101A8C0037FDB7E7FB78302BB4D10623FB70FEF79C
:101A9C00F2FE6B48FEF7DAFE01210F20FEF7F5FE91
:101AAC006048FEF7D3FE02211020FEF7EEFE5E48E2
:101ABC00FEF7CCFE3020FEF7F3FFFEF719FDFEF724
:101ACC0017FD97E75EE77B79322B40F0BD8006234C
:101ADC007B710023FB71FEF7CEFEFB79002B1BD133
:101AEC00FEF7C9FE5748FEF7B1FE01210F20FEF7A5
:101AFC00CCFE4C48FEF7AAFE02211020FEF7C5FED4
:101B0C004948FEF7A3FE02210120FEF7BEFE49481C
:101B1C00FEF79CFE0123FB71FEF7EAFCFEF7E8FCE6
:101B2C00FEF756FD03463B713B79352B04D1002360
:101B3C00FB7106233B71DDE13B79312BCDD10623C3
:101B4C003B710023FB71FEF796FEFB79002B14D141
:101B5C00FEF791FE3848FEF779FE01210F20FEF7C3
:101B6C0094FE3048FEF772FE02211020FEF78DFE27
:101B7C002D48FEF76BFE0123FB71FEF7B9FCFEF757
:101B8C00B7FCFEF725FD0346FB70FB78352B04D123
:101B9C000023FB710623FB703FE0FB78312B1CD13B
:101BAC000623FB70FEF767FE2448FEF74FFE01216B
:101BBC000F20FEF76AFE1B48FEF748FE022110209C
:101BCC00FEF763FE1848FEF741FE3120FEF768FF72
:101BDC00FEF78EFCFEF78CFCB7E7FB78302BB4D10C
:101BEC000623FB70FEF747FE1548FEF72FFE01217A
:101BFC000F20FEF74AFE0B48FEF728FE02211020AC
:101C0C00FEF743FE0848FEF721FE3020FEF748FFA2
:101C1C00FEF76EFCFEF76CFC97E75EE79C22000873
:101C2C00EC210008FC210008002200080422000816
:101C3C0014220008B02200083422000844220008B4
:101C4C00482200086C2200087B79332B40F0A780D7
:101C5C0006237B710023FB71FEF70DFEFB79002B35
:101C6C001BD1FEF708FEA548FEF7F0FD01210F2061
:101C7C00FEF70BFEA248FEF7E9FD02211020FEF74D
:101C8C0004FEA048FEF7E2FD02210120FEF7FDFD57
:101C9C009D48FEF7DBFD0123FB71FEF729FCFEF7E7
:101CAC0027FCFEF795FC03463B713B79352B04D1A1
:101CBC000023FB7106233B711CE13B79312BCDD109
:101CCC0006233B710023FB71FEF7D5FDFB79002B3E
:101CDC0014D1FEF7D0FD8D48FEF7B8FD01210F2081
:101CEC00FEF7D3FD8648FEF7B1FD02211020FEF76A
:101CFC00CCFD8448FEF7AAFD0123FB71FEF7F8FB2F
:101D0C00FEF7F6FBFEF764FC0346FB70FB78352B05
:101D1C0004D10023FB710623FB703FE0FB78312BD1
:101D2C001CD10623FB70FEF7A6FD7948FEF78EFD4D
:101D3C0001210F20FEF7A9FD7148FEF787FD022156
:101D4C001020FEF7A2FD6F48FEF780FD3120FEF754
:101D5C00A7FEFEF7CDFBFEF7CBFBB7E7FB78302BEE
:101D6C00B4D10623FB70FEF786FD6A48FEF76EFDC4
:101D7C0001210F20FEF789FD6148FEF767FD022166
:101D8C001020FEF782FD5F48FEF760FD3020FEF765
:101D9C0087FEFEF7ADFBFEF7ABFB97E75EE77B79C3
:101DAC00342B7FF4AFAD06237B710023FB71FEF760
:101DBC0062FDFB79002B1BD1FEF75DFD5648FEF74B
:101DCC0045FD01210F20FEF760FD4D48FEF73EFD5D
:101DDC0002211020FEF759FD4A48FEF737FD02217B
:101DEC000120FEF752FD4848FEF730FD0123FB7140
:101DFC00FEF77EFBFEF77CFBFEF7EAFB03463B712E
:101E0C003B79352B04D10023FB7106233B7171E028
:101E1C003B79312BCDD106233B710023FB71FEF7AF
:101E2C002AFDFB79002B14D1FEF725FD3748FEF770
:101E3C000DFD01210F20FEF728FD3148FEF706FDB0
:101E4C0002211020FEF721FD2E48FEF7FFFC012396
:101E5C00FB71FEF74DFBFEF74BFBFEF7B9FB0346A0
:101E6C00FB70FB78352B04D10023FB710623FB7030
:101E7C003FE0FB78312B1CD10623FB70FEF7FBFCFB
:101E8C002348FEF7E3FC01210F20FEF7FEFC1C4863
:101E9C00FEF7DCFC02211020FEF7F7FC1948FEF7D8
:101EAC00D5FC3120FEF7FCFDFEF722FBFEF720FBF4
:101EBC00B7E7FB78302BB4D10623FB70FEF7DBFCC5
:101ECC001448FEF7C3FC01210F20FEF7DEFC0C4882
:101EDC00FEF7BCFC02211020FEF7D7FC0948FEF7E8
:101EEC00B5FC3020FEF7DCFDFEF702FBFEF700FB35
:101EFC0097E75EE706E5FEF726BE00BF7C220008EA
:101F0C00FC21000800220008B0220008342200083E
:101F1C0044220008482200088C220008DFF834D044
:101F2C00002103E00C4B5B58435004310B480C4B25
:101F3C0042189A42F6D30B4A02E0002342F8043BC3
:101F4C00094B9A42F9D300F037F800F0EFF8FEF79E
:101F5C00CDFD704700180020C022000800000020B2
:101F6C0000000020000000203C000020FEE780B4B0
:101F7C0000AF00BFBD4680BC704780B400AFFEE729
:101F8C0080B400AFFEE780B400AFFEE780B400AFD2
:101F9C00FEE780B400AF00BFBD4680BC704780B484
:101FAC0000AF00BFBD4680BC704780B400AF00BF1F
:101FBC00BD4680BC7047000080B500AF154A154B7C
:101FCC001B6843F0010313601249124B5A68124B01
:101FDC0013404B600F4A0F4B1B6823F0847323F4A0
:101FEC00803313600B4A0B4B1B6823F48023136064
:101FFC00084A084B5B6823F4FE035360054B4FF40F
:10200C001F029A6000F00CF8044B4FF000629A60CB
:10201C0000BF80BD001002400000FFF800ED00E0A2
:10202C0080B500AF00F002F800BF80BD80B483B073
:10203C0000AF00237B6000233B603A4A394B1B689E
:10204C0043F480331360374B1B6803F400333B605D
:10205C007B6801337B603B68002B03D17B68B3F555
:10206C00A06FF0D12F4B1B6803F40033002B02D070
:10207C0001233B6001E000233B603B68012B4BD10B
:10208C00294A294B1B6843F010031360264A264B40
:10209C001B6823F003031360234A234B1B6843F094
:1020AC00020313601F4A1F4B5B6853601D4A1D4B94
:1020BC005B6853601B4A1B4B5B6843F48063536043
:1020CC00184A184B5B6823F47C135360154A154B64
:1020DC005B6843F4E8135360124A124B1B6843F0DD
:1020EC008073136000BF0F4B1B6803F00073002B51
:1020FC00F9D00C4A0B4B5B6823F003035360094A7D
:10210C00084B5B6843F00203536000BF054B5B68F0
:10211C0003F00C03082BF9D100BF0C37BD4680BC73
:10212C00704700BF001002400020024070B500252F
:10213C000C4E0D4CA41BA410A54209D100F01AF8AA
:10214C0000250A4E0A4CA41BA410A54205D170BD53
:10215C0056F8253098470135EEE756F82530984764
:10216C000135F2E7B8220008B8220008B8220008AE
:10217C00BC220008F8B500BFF8BC08BC9E467047EE
:0C218C00F8B500BFF8BC08BC9E467047C8
:102198003738392F3435362A3132332D41303D2BFB
:1021A80048656C6C6F536D617274484F4D45000003
:1021B80043686F6F73207572204D6F64653A000035
:1021C80041646D696E303A004775736574313A0041
:1021D80057656C636F6D6541444D494E4D6F64653D
:1021E8003A000000436F6E74726F6C20526F6F6D0F
:1021F8003A2000003C2D000035000000526F6F6D42
:1022080028312F322F332F343A00000057656C6382
:102218006F6D6520526F6F6D313A00004C49312F58
:10222800414952322F5456333A0000004C492D4F41
:102238004E312F4F4646303A000000004F4E000006
:102248004F464600414952204F4E312F4F464630A7
:102258003A00000054562D4F4E312F4F4646303A23
:102268000000000057656C636F6D6520526F6F6DDD
:10227800323A000057656C636F6D6520526F6F6D61
:10228800333A000057656C636F6D6520526F6F6D50
:10229800343A000057656C636F6D654775657374F4
:1022A8004D6F64653A0000004C49474854313A0084
:0422B80031010008E8
:0422BC000D01000808
:0400000508001F29A7
:00000001FF
