:020000040800F2
:100000000018002091060008E3060008EF0600082B
:10001000F5060008FB0600080107000800000000C4
:1000200000000000000000000000000007070008BA
:1000300013070008000000001F070008A1040008C3
:10004000E1060008E1060008E1060008E1060008F4
:10005000E1060008E1060008E1060008E1060008E4
:10006000E1060008E1060008E1060008E1060008D4
:10007000E1060008E1060008E1060008E1060008C4
:10008000E1060008E1060008E1060008E1060008B4
:10009000E1060008E1060008E1060008E1060008A4
:1000A000E1060008E1060008E1060008E106000894
:1000B000E1060008E106000800000000E106000873
:1000C000E106000800000000000000008D040008A8
:1000D00000000000B1050008E10600080000000073
:1000E000E1060008E1060008E10600080000000043
:1000F0000000000000000000000000000000000000
:0C01000000000000000000005FF808F1A3
:10010C0010B5054C237833B9044B13B10448AFF345
:10011C0000800123237010BD0000002000000000AF
:10012C00E808000808B5034B1BB103490348AFF3BB
:10013C00008008BD0000000004000020E808000852
:10014C0080B483B000AF0346FB710B46BB71134602
:10015C007B71FB79012B3AD0022B6DD0002B00D098
:10016C00A4E0BB79072B15D85349534B1B68BA79BC
:10017C0092000F2000FA02F2D24313400B604E485B
:10018C004D4B1B687979BA79920001FA02F213434C
:10019C00036086E0BB790F2B00F28380BB79083BB0
:1001AC00BB714549444B5B68BA7992000F2000FA49
:1001BC0002F2D24313404B603F483F4B5B68797966
:1001CC00BA79920001FA02F21343436069E0BB79F9
:1001DC00072B15D83949394B1B68BA7992000F2077
:1001EC0000FA02F2D24313400B603448334B1B68C5
:1001FC007979BA79920001FA02F21343036052E062
:10020C00BB790F2B4FD8BB79083BBB712B492B4BC0
:10021C005B68BA7992000F2000FA02F2D2431340C5
:10022C004B602648254B5B687979BA79920001FAC4
:10023C0002F21343436036E0BB79072B15D82049F3
:10024C001F4B1B68BA7992000F2000FA02F2D243BE
:10025C0013400B601A481A4B1B687979BA799200D3
:10026C0001FA02F2134303601FE0BB790F2B1CD879
:10027C00BB79083BBB711249114B5B68BA79920090
:10028C000F2000FA02F2D24313404B600C480C4B87
:10029C005B687979BA79920001FA02F213434360F0
:1002AC0003E000BF02E000BF00E000BF00BF0C375E
:1002BC00BD4680BC704700BF00080140000C0140E7
:1002CC000010014080B483B000AF0346FB710B46B5
:1002DC00BB7113467B71FB79012B1FD0022B38D0DD
:1002EC00002B00D055E07B79012B09D12B492B4BEE
:1002FC00DB68BA79012000FA02F21343CB6043E0C9
:10030C007B79002B40D12549244BDB68BA7901203D
:10031C0000FA02F2D2431340CB6035E07B79012B1B
:10032C0009D11F491E4BDB68BA79012000FA02F291
:10033C001343CB602AE07B79002B27D11849184B4B
:10034C00DB68BA79012000FA02F2D2431340CB6089
:10035C001CE07B79012B09D11249124BDB68BA796D
:10036C00012000FA02F21343CB6011E07B79002BE1
:10037C000ED10C490B4BDB68BA79012000FA02F262
:10038C00D2431340CB6003E000BF02E000BF00E0AB
:10039C0000BF00BF0C37BD4680BC70470008014051
:1003AC00000C01400010014080B483B000AF00236A
:1003BC007B60164A154B5B6843F001035360134A8C
:1003CC00124B5B6823F002035360104A0F4B1B68FF
:1003DC0043F48033136002E07B6801337B600B4B8A
:1003EC001B685B0C03F00103002B03D17B68084AEC
:1003FC009342F1D9054A054B1B6823F40023136083
:10040C0000BF0C37BD4680BC704700BF00100240D7
:10041C009F86010080B483B000AF03460A46FB718F
:10042C001346BB71FB79012B0ED0022B16D0002B7F
:10043C0000D01DE01149114B5B69BA79012000FA1B
:10044C0002F213434B6113E00C490C4BDB69BA7994
:10045C00012000FA02F21343CB6109E00749074B74
:10046C009B69BA79012000FA02F213438B6100BF39
:10047C0000BF0C37BD4680BC704700BF0010024067
:10048C0080B500AF024B1B68984700BF80BD00BF12
:10049C001C00002080B500AF024B1B68984700BFC2
:1004AC0080BD00BF2000002080B483B000AF342397
:1004BC007B6080233B603B6840F2DC52934204D962
:1004CC007B6801337B6000233B60274B00221A6062
:1004DC00254A254BDB6823F48053D360224A224BF8
:1004EC00DB6823F48063D3601F4A1F4BDB6823F067
:1004FC002003D3601C4A1C4BDB6823F04003D36001
:10050C00194A194BDB6823F08003D360164A164B4B
:10051C00DB6843F00803D360134A134BDB6843F0EA
:10052C000403D360104A104B1B6923F480531361EE
:10053C000D4A0D4B1B6923F4005313610A497B6868
:10054C001A013B680948A0FB03035B0913438B604A
:10055C00054A054BDB6843F40053D36000BF0C37EE
:10056C00BD4680BC704700BF003801401F85EB5171
:10057C0080B483B000AF0023FB7100233B6000BF4D
:10058C00074B1B685B0903F00103002BF8D0044BED
:10059C005B68FB71FB7918460C37BD4680BC704715
:1005AC000038014080B500AF034B00221A60034BAA
:1005BC001B68984700BF80BD003801403800002000
:1005CC0080B582B000AFFF23FB71FFF7EDFE022177
:1005DC000220FFF71FFF03210220FFF71BFF0C2156
:1005EC000220FFF717FF0E210220FFF713FF042252
:1005FC000A210020FFF7A4FD022200210020FFF7B2
:10060C009FFD022201210020FFF79AFD0222022108
:10061C000020FFF795FDFFF747FFFFF7A9FF034603
:10062C00BB71BB79312B04D1012200210020FFF7D3
:10063C0049FEBB79302B04D1002200210020FFF7AA
:10064C0041FEBB79332B04D1012201210020FFF79D
:10065C0039FEBB79342B04D1002201210020FFF795
:10066C0031FEBB79352B04D1012202210020FFF78A
:10067C0029FEBB79362BD0D1002202210020FFF7B6
:10068C0021FECAE7DFF834D0002103E00C4B5B58A5
:10069C00435004310B480C4B42189A42F6D30B4A88
:1006AC0002E0002342F8043B094B9A42F9D300F0D4
:1006BC0037F800F0EFF8FFF783FF704700180020C1
:1006CC0008090008000000200000002000000020A5
:1006DC003C000020FEE780B400AF00BFBD4680BCEC
:1006EC00704780B400AFFEE780B400AFFEE780B483
:1006FC0000AFFEE780B400AFFEE780B400AF00BFF0
:10070C00BD4680BC704780B400AF00BFBD4680BC06
:10071C00704780B400AF00BFBD4680BC704700007E
:10072C0080B500AF154A154B1B6843F001031360ED
:10073C001249124B5A68124B13404B600F4A0F4B25
:10074C001B6823F0847323F4803313600B4A0B4B28
:10075C001B6823F480231360084A084B5B6823F45E
:10076C00FE035360054B4FF41F029A6000F00CF827
:10077C00044B4FF000629A6000BF80BD0010024035
:10078C000000FFF800ED00E080B500AF00F002F8CB
:10079C0000BF80BD80B483B000AF00237B6000231A
:1007AC003B603A4A394B1B6843F480331360374B38
:1007BC001B6803F400333B607B6801337B603B6850
:1007CC00002B03D17B68B3F5A06FF0D12F4B1B68C6
:1007DC0003F40033002B02D001233B6001E0002323
:1007EC003B603B68012B4BD1294A294B1B6843F0DA
:1007FC0010031360264A264B1B6823F00303136077
:10080C00234A234B1B6843F0020313601F4A1F4B00
:10081C005B6853601D4A1D4B5B6853601B4A1B4B46
:10082C005B6843F480635360184A184B5B6823F48D
:10083C007C135360154A154B5B6843F4E813536003
:10084C00124A124B1B6843F08073136000BF0F4BAE
:10085C001B6803F00073002BF9D00C4A0B4B5B6840
:10086C0023F003035360094A084B5B6843F002030F
:10087C00536000BF054B5B6803F00C03082BF9D1E8
:10088C0000BF0C37BD4680BC704700BF0010024053
:10089C000020024070B500250C4E0D4CA41BA4107A
:1008AC00A54209D100F01AF800250A4E0A4CA41BE7
:1008BC00A410A54205D170BD56F8253098470135D6
:1008CC00EEE756F8253098470135F2E700090008A5
:1008DC00000900080009000804090008F8B500BF69
:1008EC00F8BC08BC9E467047F8B500BFF8BC08BC05
:0408FC009E4670475D
:0409000031010008B9
:040904000D010008D9
:040000050800069158
:00000001FF
